:020000040800F2
:10000000200400209D010008590A00085B08000830
:10001000C9080008010700081F21000800000000AF
:10002000000000000000000000000000090D0008B2
:100030006907000800000000E90A00088D0F0008A9
:10004000B7010008B7010008B7010008B7010008B0
:10005000B7010008B7010008B7010008B7010008A0
:10006000B7010008B7010008B7010008B701000890
:10007000B7010008B7010008B7010008B701000880
:10008000B7010008B7010008B7010008B701000870
:10009000B7010008B7010008B7010008B701000860
:1000A000B7010008B7010008B7010008B701000850
:1000B00041120008BD13000821150008B70100080F
:1000C000B7010008B7010008B7010008B701000830
:1000D000B7010008491F0008B7010008B701000870
:1000E000B7010008B7010008B7010008B701000810
:1000F00009190008B7010008B7010008B701000896
:10010000B7010008B701000885160008B70100080C
:10011000B7010008B7010008B7010008B7010008DF
:10012000B7010008B7010008B7010008B7010008CF
:10013000B7010008B7010008B7010008B7010008BF
:10014000B7010008B7010008B7010008B7010008AF
:10015000B7010008B7010008B7010008B70100089F
:10016000B7010008B7010008B7010008B70100088F
:10017000B7010008B7010008B7010008B70100087F
:10018000B7010008B7010008DFF80CD000F018FA3A
:10019000004800473D2A0008200400200648804708
:1001A00006480047FEE7FEE7FEE7FEE7FEE7FEE75C
:1001B000FEE7FEE7FEE7FEE7910F00088901000871
:1001C00030B50B46014600202022012409E021FA27
:1001D00002F59D4205D303FA02F5491B04FA02F524
:1001E0002844151EA2F10102F1DC30BD2DE9F05FBB
:1001F0000546002092469B46884606468146402496
:100200001BE0284641464746224600F0FAF953468D
:100210005A46C01A914110D311461846224600F0A2
:10022000E1F92D1A67EB01084F4622460120002113
:1002300000F0D8F917EB00094E41201EA4F101048B
:10024000DFDC484631462A464346BDE8F09F2DE9AB
:10025000FE4F804681EA0300C00F0C46009021F05B
:10026000004123F00045B8EB0200A94105D2404609
:10027000214690461C460B46024623F000401043A0
:1002800047D0270DC7F30A00C3F30A510290401A62
:10029000019040286BDAC3F3130040F4801B0098F0
:1002A000924620B10023D2EB030A63EB0B0B0198BB
:1002B0005946C0F14002504600F094F906460D46FA
:1002C00050465946019A00F0ACF910EB0800614124
:1002D000002487EA115284EAE7731A4340D0009A57
:1002E00062B3019A012A4FEA075215DC001B61EB49
:1002F00002014FF0004202EA0752CDE90042001C21
:1003000041F5801132462B4600F0ACF903B0BDE850
:10031000F08F40462146F9E7001B61EB0201001C0B
:1003200041F5801300185B412018A2F5001747EB38
:10033000030140EAD570B6196D4111E06D084FEA2E
:10034000360645EAC0754FEA0752001B61EB020111
:10035000001C41F5801149084FEA30000019514155
:1003600032462B4603B0BDE8F04F00F06CB9009860
:10037000012240000023D0EB020263EBE0730098FF
:1003800021464FEAE074B8EB000061EB0401E9E7B5
:1003900083F000435BE781F0004158E72DE9FE4F11
:1003A00081EA030404F0004421F0004100944FF07E
:1003B000000B23F0004350EA01045ED052EA03042C
:1003C0005BD0C3F30A54C1F30A552C44A4F2F334AE
:1003D0000194A0FB0254C1F3130141F48011C3F353
:1003E000130343F4801301FB024400FB034E840A11
:1003F000970A44EA815447EA8357A4FB07680295A9
:100400008D0A05FB07854FEA932C04FB0C54270546
:10041000029D4FEA065847EA1637B5EB08056EEB22
:10042000070C870E920E47EA811742EA8312A7FB58
:100430000201B6EB0B0164EB00042B0D43EA0C3315
:100440005E1844EB1C50DA465146E7FB0201C5F347
:1004500013044FEA0B3343EA14534FEA0432019C6E
:1004600043EA0603A4F10C040294009CCDE900B415
:1004700000F0F8F803B0BDE8F08F00200146F9E77E
:100480002DE9F04D81EA030404F0004B21F0004512
:1004900014464FF0000A23F0004150EA050220D034
:1004A00054EA01021DD0C5F30A570246C5F31303EF
:1004B000C1F31300C1F30A5640F4801543F48013CE
:1004C000A7EB0608101BD64608F2FD3873EB0500B3
:1004D00002D308F1010801E092185B41B8F1000F66
:1004E00003DA00200146BDE8F08D00204FF48011B2
:1004F000064684460EE0171B73EB050705D3121B57
:1005000063EB050306434CEA010C49084FEA30004F
:1005100092185B4150EA0107EDD152EA030012D074
:1005200082EA040083EA0501084305D0101BAB41B1
:1005300006D20122002306E000224FF0004302E031
:100540006FF0010253101AEB06004CEB085110EB50
:100550000A0041EB0B01BDE8F04D00F074B8C1F3A7
:100560000A52C1F3130140F2FF3341F480119A4261
:1005700002DA00200146704740F233439A42A2F269
:10058000334202DC524200F03CB800F02BB80000CD
:1005900030B5041E71F1000404DB4FF0004440420A
:1005A00064EB0101141E73F1000405DB1C464FF0DF
:1005B0000043524263EB0403994208BF904230BDAE
:1005C000064C074D06E0E06840F0010394E80700A0
:1005D00098471034AC42F6D3FFF7DAFD9C2B0008A5
:1005E000BC2B0008202A04DB203A00FA02F100208C
:1005F00070479140C2F1200320FA03F31943904061
:100600007047202A04DB203A21FA02F000217047CB
:1006100021FA02F3D040C2F120029140084319466A
:100620007047202A06DBCB17203A41FA02F043EA52
:10063000E07306E041FA02F3D040C2F1200291409B
:1006400008431946704710B5141E73F1000408DA08
:10065000401C41F1000192185B411A4301D120F086
:10066000010010BD2DE9F04D92469B4611B1B1FA43
:1006700081F202E0B0FA80F220329046FFF7B2FF3A
:1006800004460F4640EA0A0041EA0B0153465A4627
:10069000084313D0114653EA010019D0C8F14002B3
:1006A0005046FFF7AEFF05460E46504659464246B5
:1006B000FFF798FF084305D0012004E020463946A3
:1006C000BDE8F08D0020054346EAE0762C43374331
:1006D0000A986305E40AA0EB08000022FD0A44EA38
:1006E00047540A3002D500200146E9E701051019F8
:1006F0006941DDE9084500196941BDE8F04DA2E70F
:1007000000BFFEE710B50024032000F01FFB012806
:1007100002D14FF4FA6406E0032000F017FBB0F1B9
:10072000FF3F00D10024204610BD000010B5044654
:100730002146024801F033FB10BD000000040140D7
:1007400010B501220C21024801F006F910BD00008D
:100750000004014010B500220C21024801F0FCF811
:1007600010BD0000000401407047F0B50A460021AA
:100770000023002400BF3DE0012505FA01F31568C0
:1007800005EA03049C4234D105684F000326BE40AD
:10079000B543056015794E00B540066835430560E0
:1007A0001579012D02D01579022D16D185684F00DB
:1007B0000326BE40B543856055794E00B540866836
:1007C00035438560456801268E40B54345604568E0
:1007D00096798E40B6B235434560C5684F00032612
:1007E000BE40B543C560D5794E00B540C6683543B7
:1007F000C560491C1029BFD3F0BDF0B5002300240B
:100800004D07ED0E02FA05F3CE1000F1200555F864
:1008100026504E07F70E0F26BE40B543CF1000F10D
:10082000200646F82750CE1000F1200555F8265036
:1008300045EA0304CE1000F1200545F82640F0BD3E
:100840000246002053690B400BB1012000E000205C
:100850007047418370470183704700BFFEE7000087
:100860001CB50121402000F0ABF901208DF80400F7
:1008700000208DF806004FF40050009002208DF803
:10088000050069460448FFF770FF4FF40051024825
:10089000FFF7E1FF1CBD00000018024010B54FF447
:1008A00000510848FFF7CCFF28B94FF40051054824
:1008B000FFF7D1FF04E04FF400510248FFF7C9FFF2
:1008C00010BD00000018024000BFFEE770B500F048
:1008D00094F80546002400F090F840F25231884226
:1008E00005D300F08AF840F66601884201D900205D
:1008F00070BD00F07BF840F2DC51081A041E00DAEB
:10090000002400F07AF8A0F2DC50002805D420463C
:1009100004EBD071A5EB61050CE000F06EF8A0F2DD
:10092000DC50002805D5204604EBD07105EB6105AD
:1009300000E000252846DBE710B5044640F2EE2033
:10094000844203DB40F6CA00844200DD00242146D5
:10095000014801F022FA10BD0000014070B500F01E
:100960004CF80546002400F048F840F25231884225
:1009700005D300F042F840F66601884201D9002014
:1009800070BD00F033F8A0F2DC50041E00DA002441
:1009900000F033F8A0F2DC50002805D4204604EB28
:1009A000D071A5EB61050CE000F027F8A0F2DC5057
:1009B000002805D5204604EBD07105EB610500E069
:1009C00000252846DCE7000010B5044640F2EE2082
:1009D000844203DB40F6CA00844200DD0024214645
:1009E000014801F0DCF910BD0000014010B54FF0E6
:1009F000804000F0E1FF401C10BD10B54FF080407A
:100A000000F0D7FF401C10BD10B500F087FB00F0D0
:100A100027FC10BD10B501220821044800F09CFFFE
:100A200001220C21014800F097FF10BD0000014099
:100A300010B50020FFF780FF0020FFF7C5FF002260
:100A40000821044800F088FF00220C21014800F032
:100A500083FF10BD000001407047000070B5002109
:100A600000230F22C4781CB3174C246804F4E064FC
:100A7000C4F5E064C4F30721C1F10404E3B20A4100
:100A800044789C40E1B28478144021430C07210E45
:100A90000E4C05786155047804F01F050124AC4024
:100AA00005786D11AD0005F1E025C5F8004109E0BC
:100AB000047804F01F050124AC40054D067876113A
:100AC00045F8264070BD00000CED00E000E400E0B9
:100AD00080E100E002490143024A116070470000D2
:100AE0000000FA050CED00E07047000010B5044668
:100AF0002146024801F051F910BD000000040140F8
:100B000010B501220821024800F026FF10BD0000A8
:100B10000004014010B500220821024800F01CFF2B
:100B200010BD00000004014010B5044621460248F3
:100B300001F02FF910BD00000004014010B504467B
:100B40002146024801F027F910BD000000040140D1
:100B500010B5064800F02DFF00EE100AB8EE400A6E
:100B6000BCEEC00A10EE100A10BD000000040040E8
:100B700010B5FFF7EDFF0446204610BD10B500F09C
:100B80002FFC00F02FFE10BD10B5012200210448FB
:100B900000F0E2FE01220421014800F0DDFE10BD5C
:100BA0000004014010B500221146044800F0D4FEB4
:100BB00000220421014800F0CFFE10BD00040140D6
:100BC00029B1064A12680243044B1A6004E0034A42
:100BD00012688243014B1A607047000030380240AF
:100BE00029B1064A12680243044B1A6004E0034A22
:100BF00012688243014B1A6070470000403802407F
:100C000029B1064A12680243044B1A6004E0034A01
:100C100012688243014B1A6070470000443802405A
:100C2000F0B5002100220024022500260223324FC5
:100C30003F6807F00C0121B1042905D0082937D1FC
:100C400005E02E4F076036E02D4F076033E02A4F56
:100C50003F1F3F68C7F38056274F3F1F3F6807F08D
:100C60003F036EB1264FB7FBF3F7DFF88CC0ACF152
:100C7000040CDCF800C0CCF3881C07FB0CF40CE07F
:100C80001E4FB7FBF3F7DFF870C0ACF1040CDCF8D3
:100C900000C0CCF3881C07FB0CF4174F3F1F3F68C4
:100CA000C7F301477F1C7D00B4FBF5F7076002E046
:100CB000124F076000BF00BF0F4F3F6807F0F00101
:100CC0000909104F7A5C0768D74047600A4F3F68B0
:100CD00007F4E051890A0B4F7A5C4768D740876078
:100CE000054F3F6807F46041490B064F7A5C47683F
:100CF000D740C760F0BD0000083802400024F4006F
:100D000000127A00000000207047000010B5024871
:100D100000F04FFE10BD00000008004010B5024872
:100D200000F04AFE10BD00000008004010B5024867
:100D300000F03FFE10BD0000000C004010B502485E
:100D400000F03AFE10BD0000000C004070B50446F3
:100D500000250026012C01D10F4E0DE0022C01D1FF
:100D60000E4E09E0032C01D10D4E05E0042C01D1FB
:100D70000C4E01E0002070BDB0470546B5F5C86FC8
:100D800001D30120F7E7B5F5AF6F02D84FF0FF3080
:100D9000F1E70020EFE700000D0D00081D0D000831
:100DA0002D0D00083D0D000810B500F0CBFB00F044
:100DB0007BFC10BD10B50446B4F5FA7F03D340F6B2
:100DC000C410844200D900242146024800F0E1FF0B
:100DD00010BD00000000014010B50446B4F5FA7FD4
:100DE00003D340F6C410844200D9002421460248AF
:100DF00000F0D1FF10BD00000000014010B5024816
:100E000000F0DAFD10BD00000004004010B5FFF74F
:100E1000F5FF0446FFF7F2FFB0F5617F05D3FFF75A
:100E2000EDFF40F63401884201D9002010BDA4F541
:100E3000617000EE100AF8EE400A9FED061A9FED71
:100E4000060A00EE810ABCEEC00A10EE104A2046E7
:100E5000ECE700005555D53F0000FA4310B500F00F
:100E60005DF900F0BDFA10BD10B50022114604482E
:100E700000F072FD00220421014800F06DFD10BD5C
:100E80000000014010B501220021044800F064FD7B
:100E900001220421014800F05FFD10BD0000014067
:100EA0000CB50020019000903448006840F4803078
:100EB0003249086000BF3148006800F400300090FB
:100EC0000198401C0190009818B90198B0F5A04F06
:100ED000F1D12A48006800F4003010B101200090E0
:100EE00001E0002000900098012846D123484030BE
:100EF000006840F080502149403108602048006877
:100F000040F440401E4908601C48083000681B49F6
:100F1000083108600846006840F400400860084650
:100F2000006840F4A05008601648091F0860081FB8
:100F3000006840F08070091F086000BF0F4800681B
:100F400000F000700028F9D040F205700E490860EA
:100F50000A480830006820F003000849083108609A
:100F60000846006840F00200086000BF03480830EF
:100F7000006800F00C000828F8D10CBD00380240D1
:100F80000070004008544007003C024070470000D9
:100F900010B51548006840F4700013490860134804
:100FA000006840F001001149086000200F49083135
:100FB00008600E4800680E4908400C4908600D485A
:100FC000091D0860081F006820F48020091F0860C0
:100FD000002006490C310860FFF762FF4FF0006007
:100FE00001498039086010BD88ED00E000380240FA
:100FF000FFFFF6FE10300024F0B50C461546002128
:101000000022068C4FF6FE773E400684018B028C50
:101010004FF60C7631407E1C06EA03162E43314310
:101020004FF6F576324044F00106324301830284E4
:10103000F0BDF0B50C461546002100220026078CB5
:101040004FF6EF7C07EA0C070784018B028C4FF602
:10105000FF7707EA041640F6FF4739404FF6FF775F
:1010600007EA033739434FF6FF7707EA0527394385
:101070004FF65F773A4046F010073A430183028407
:10108000F0BDF0B50C461546002100220026078C65
:101090004FF6FF6C07EA0C070784818B028C4FF632
:1010A000FF7707EA04264FF60C7739404FF6FF77B3
:1010B00007EA03172F4339434FF2FF573A4046F4EC
:1010C00080773A4381830284F0BDF0B50C46154623
:1010D000002100220026078C4EF6FF7C07EA0C0751
:1010E0000784818B028C4FF6FF7707EA043640F6BF
:1010F000FF4739404FF6FF7707EA052739434FF698
:10110000FF7707EA0337394345F6FF773A4046F45D
:1011100080573A4381830284F0BD000000B58BB054
:1011200001210846FFF76CFD01210846FFF748FD45
:1011300001211020FFF744FD012208213D48FFF75F
:101140005CFB01220B213B48FFF757FB01220B21DF
:101150003948FFF752FB01220D213748FFF74DFBBD
:1011600002208DF8280000208DF82A004FF410602E
:10117000099003208DF8290001208DF82B0009A982
:101180002C48FFF7F2FA4FF42050099009A92A4899
:10119000FFF7EBFA294800F05BFC44F61F6007906C
:1011A000A720ADF818000020ADF82000ADF81A0017
:1011B0008DF8220006A9214800F022FE6020ADF83B
:1011C00004000120ADF806000020ADF80800ADF8DD
:1011D00010000390ADF8140001A9184800F03EFC7F
:1011E00001A9164800F082FC01A9144800F0DEFCB9
:1011F00001A9124800F034FD0821104800F06CFCF1
:1012000008210E4800F0C4FC08210C4800F01EFD27
:1012100008210A4800F060FD0121084800F090FB19
:101220000121064800F0AAFB0121044800F0B2FBAE
:101230000BB000BD00000240001002400000014061
:1012400010B50821C80600F0BAFB40B100214FF0EC
:10125000804000F0A6FD0821C80600F08CFB10BD00
:1012600000B589B001210846FFF7BAFC0121084604
:10127000FFF7A6FC01210220FFF7A2FC01220521B5
:101280004C48FFF7BAFA01220A214B48FFF7B5FA9A
:1012900002208DF8200000208DF8220020200790E9
:1012A00003208DF8210001208DF8230007A9414873
:1012B000FFF75BFA4FF48060079007A93E48FFF7FD
:1012C00054FA4FF0804000F0C3FB4FF6FF700590DA
:1012D0005320ADF810000020ADF81800ADF8120052
:1012E00004A94FF0804000F08BFD0020ADF8040011
:1012F0000120ADF808000020ADF80A000F20ADF87D
:101300000C000020ADF8060001A94FF0804000F06D
:101310005FFB01A94FF0804000F0EBFC50218806F4
:1013200000F025FD0421080700F02AFD0820ADF893
:1013300004000120ADF808000020ADF80A000F20DD
:10134000ADF80C000020ADF8060001A94FF0804078
:1013500000F03EFB0C20ADF804000220ADF80800C0
:101360000020ADF80A000F20ADF80C000220ADF807
:10137000060001A9400700F02BFB4FF4A060FFF727
:10138000A9FB1C208DF8000002208DF8010001202F
:101390008DF802008DF803006846FFF75FFB01221D
:1013A0000821C80600F04BFB0121880700F0E6FA8F
:1013B00009B000BD000002400004024010B5082141
:1013C000064800F0FCFA38B10021044800F0E9FCBE
:1013D0000821024800F0CFFA10BD000000040040D0
:1013E00000B589B001210220FFF7FAFB012102209C
:1013F000FFF7E6FB022204214748FFF7FEF902222D
:1014000000214548FFF7F9F902208DF8200000205F
:101410008DF822001120079003208DF82100012073
:101420008DF8230007A93C48FFF79FF93B4800F0DF
:101430000FFB4FF6FF7005905320ADF81000002011
:10144000ADF81800ADF8120004A9344800F0D8FC3B
:101450000020ADF804000120ADF808000020ADF830
:101460000A000F20ADF80C000020ADF8060001A91D
:101470002A4800F0ADFA01A9284800F03AFC5021B2
:10148000264800F074FC0421244800F079FC082070
:10149000ADF804000120ADF808000020ADF80A0006
:1014A0000F20ADF80C000020ADF8060001A91B4884
:1014B00000F08EFA0C20ADF804000220ADF8080010
:1014C0000020ADF80A000F20ADF80C000220ADF8A6
:1014D000060001A9114800F07BFA4FF4A060FFF765
:1014E000F9FA1D208DF8000002208DF8010003207C
:1014F0008DF8020001208DF803006846FFF7AEFA70
:1015000001220821054800F09AFA0121034800F061
:1015100035FA09B000BD000000040240000400409C
:1015200010B50821064800F04AFA38B100210448F5
:1015300000F037FC0821024800F01DFA10BD000041
:101540000008004000B589B001210420FFF748FBE6
:1015500001210820FFF734FB02220C214748FFF746
:101560004CF902220E214548FFF747F902208DF879
:10157000200000208DF822004FF4A04007900320A7
:101580008DF8210001208DF8230007A93B48FFF7C3
:10159000ECF83B4800F05CFA4FF6FF7005905320E2
:1015A000ADF810000020ADF81800ADF8120004A945
:1015B000334800F025FC0020ADF804000120ADF810
:1015C00008000020ADF80A000F20ADF80C00002044
:1015D000ADF8060001A92A4800F0FAF901A9284847
:1015E00000F087FB5021264800F0C1FB042124486D
:1015F00000F0C6FB0820ADF804000120ADF808009B
:101600000020ADF80A000F20ADF80C000020ADF866
:10161000060001A91A4800F0DBF90C20ADF804001F
:101620000220ADF808000020ADF80A000F20ADF848
:101630000C000220ADF8060001A9114800F0C8F91D
:101640004FF4A060FFF746FA1E208DF8000002203C
:101650008DF8010000208DF8020001208DF80300B4
:101660006846FFF7FBF901220821054800F0E7F979
:101670000121034800F082F909B000BD000C0240CE
:101680000008004010B50821064800F098F938B16C
:101690000021044800F085FB0821024800F06BF9A6
:1016A00010BD0000000C004000B589B001210820E9
:1016B000FFF796FA01210846FFF782FA022200217D
:1016C0004648FFF79AF8022211464448FFF795F87A
:1016D00002208DF8200000208DF8220005200790C0
:1016E00003208DF8210001208DF8230007A93B4835
:1016F000FFF73BF83A4800F0ABF94FF6FF70059062
:101700005320ADF810000020ADF81800ADF812001D
:1017100004A9334800F074FB0020ADF80400012058
:10172000ADF808000020ADF80A000F20ADF80C005D
:101730000020ADF8060001A9294800F049F901A9E7
:10174000274800F0D6FA5021254800F010FB04216C
:10175000234800F015FB0820ADF804000120ADF887
:1017600008000020ADF80A000F20ADF80C000020A2
:10177000ADF8060001A91A4800F02AF90C20ADF8CE
:1017800004000220ADF808000020ADF80A000F2088
:10179000ADF80C000220ADF8060001A9104800F0D9
:1017A00017F94FF4A060FFF795F932208DF800008B
:1017B00002208DF801008DF8020001208DF8030051
:1017C0006846FFF74BF901220821054800F037F978
:1017D0000121034800F0D2F809B000BD000002402A
:1017E000000C004000B58BB001210220FFF708FA81
:1017F00001210420FFF7E4F9032206214048FEF707
:10180000FCFF032207213E48FEF7F7FF03220821D1
:101810003B48FEF7F2FF032209213948FEF7EDFFAE
:1018200002208DF8280000208DF82A004FF47070F7
:10183000099003208DF8290001208DF82B0009A9BB
:101840002F48FEF792FF2F4800F002F944F61F6080
:101850000790A720ADF818000020ADF82000ADF8E3
:101860001A0006A9274800F0CBFA6020ADF8040062
:101870000120ADF806000020ADF810000390ADF88F
:10188000140001A91F4800F0E9F801A91D4800F063
:101890002DF901A91B4800F089F901A9194800F0A8
:1018A000DFF90121174800F075F80821154800F00C
:1018B00013F90121134800F043F84FF4A060FFF73B
:1018C00009F92C208DF8000003208DF8010002207A
:1018D0008DF8020001208DF803006846FFF7BEF87E
:1018E0000121084800F047F801221146054800F0A0
:1018F000A6F80121034800F041F80BB000BD00003C
:10190000000802400004014010B501210A4800F01F
:1019100056F880B109480068401C0849086008462C
:101920000068322803D300200860FEF7B7FF0121CA
:10193000014800F020F810BD000401401400002010
:1019400021B1028842F08002028004E002884FF652
:101950007F731A400280704730B5002301248C4009
:10196000A3B2048C9C430484048C02FA01F5ADB24A
:101970002C43048430BDCA430282704721B10288DF
:1019800042F00102028004E002884FF6FE731A4022
:101990000280704731B1B0F8442042F40042A0F810
:1019A000442005E0B0F84420C2F30E02A0F8442021
:1019B00070470146886B70470146086C70470246C5
:1019C0000020138A0B400BB1012000E0002070477B
:1019D00070B505460C46208850B92389A2886188D5
:1019E0002846FFF709FBE188284600F0DCF925E0EE
:1019F000208804280AD12389A28861882846FFF715
:101A000018FBE188284600F0D7F917E0208808285D
:101A10000AD12389A28861882846FFF732FBE18832
:101A2000284600F0D6F909E02389A2886188284673
:101A3000FFF74BFBE188284600F0D4F970BD1AB1DE
:101A400083890B43838102E083898B4383817047C1
:101A500001894FF6F87211400181704770B500247A
:101A600000220023058C4FF6FE7635400584028C5B
:101A70008388048B4FF68F752C40B51E2C400D8843
:101A80002C43751E2A408D892A434D882A43104DC8
:101A9000A84202D00F4DA84213D14FF6F7752A4045
:101AA000CD892A434FF6FB752A408D882A434FF68D
:101AB000FF652B404FF6FF552B400D8A2B434D8A77
:101AC0002B43838004838D684563028470BD0000CE
:101AD00000000140000401400A460021018B4FF63E
:101AE000F7731940114301837047000070B500245B
:101AF00000220023058C4FF6EF7635400584028CDA
:101B00008388048B48F6FF752C404FF6FF452C4028
:101B10000D884FF6FF7606EA05252C434FF6DF7554
:101B20002A408D8906EA05152A434D8806EA0515DF
:101B30002A43154DA84202D0144DA8421DD14FF69C
:101B40007F752A40CD894FF6FF7606EA05152A43B0
:101B50004FF6BF752A408D8806EA05152A434FF6D1
:101B6000FF352B404FF2FF752B400D8A06EA8505A5
:101B70002B434D8A06EA85052B43838004838D68B9
:101B80008563028470BD0000000001400004014034
:101B90000A460021018B4FF2FF7319404FF6FF7385
:101BA00003EA0223194301837047000070B5002443
:101BB00000220023058C4FF6FF6635400584028C19
:101BC0008388848B4FF68F752C404FF6FC752C4024
:101BD0000D882C434FF6FF552A408D894FF6FF762E
:101BE00006EA05252A434D8806EA05252A43154DB0
:101BF000A84202D0144DA8421DD14FF2FF752A40D1
:101C0000CD894FF6FF7606EA05252A434FF6FF35C4
:101C10002A408D8806EA05252A434EF6FF752B409B
:101C20004DF6FF752B400D8A06EA05152B434D8AAC
:101C300006EA05152B43838084838D68C56302847F
:101C400070BD000000000140000401400A46002170
:101C5000818B4FF6F7731940114381837047000061
:101C600070B5002200230024058C4EF6FF76354027
:101C70000584038C8488828B48F6FF752A404FF6D2
:101C8000FF452A400D884FF6FF7606EA05252A43D0
:101C90004DF6FF752B408D8906EA05352B434D889F
:101CA00006EA05352B430A4DA84202D0094DA84249
:101CB00008D14BF6FF752C400D8A4FF6FF7606EAE9
:101CC00085152C43848082838D680564038470BDF0
:101CD00000000140000401400A460021818B4FF2C0
:101CE000FF7319404FF6FF7303EA02231943818300
:101CF00070472DE9F04105460C4600260127608813
:101D000008B9022600E00026A088012801D1022798
:101D100000E001272088A0B92389A288618828468D
:101D2000FFF76AF9E188284600F03DF823893A4632
:101D300031462846FFF77DF9E188284600F03CF857
:101D400013E02389A28861882846FFF772F9E188A9
:101D5000284600F031F823893A4631462846FFF7F5
:101D60004BF9E188284600F01EF8BDE8F0810A46EC
:101D7000002101894FF68F7319401143018170478B
:101D800002894FF6F8731A40028102890A430281E0
:101D900070474163704781637047C1637047016456
:101DA000704741627047028B4FF6F3731A4002830B
:101DB000028B0A4302837047028B4FF2FF331A40B3
:101DC0000283028B4FF6FF7303EA01231A43028357
:101DD0007047828B4FF6F3731A408283828B0A43DB
:101DE00082837047828B4FF2FF331A408283828B4B
:101DF0004FF6FF7303EA01231A4382837047000002
:101E000000220288184B98420ED0184B98420BD0F3
:101E1000B0F1804F08D0164B984205D0154B984230
:101E200002D0154B984204D14FF68F731A404B885D
:101E30001A43124B984207D0114B984204D04FF6E8
:101E4000FF431A400B891A4302804B68C3620B8818
:101E50000385054B984202D0044B984201D18B7AFE
:101E60000386012383827047000001400004014083
:101E70000004004000080040000C0040001000403A
:101E80000014004000B587B001210846FEF798FE17
:101E900001211020FEF7B4FE072209212848FEF791
:101EA000ACFC07220A212648FEF7A7FC02208DF889
:101EB000180000208DF81A004FF4C0600590012032
:101EC0008DF81B0002208DF8190005A91C48FEF7AB
:101ED0004CFC4FF4165001900020ADF810000C207F
:101EE000ADF80E000020ADF80C00ADF80A00ADF81A
:101EF000080001A9134800F09FF84FF4A060FEF716
:101F0000E9FD25208DF8000001208DF80300022056
:101F10008DF801008DF802006846FEF79FFD402114
:101F2000084800F033F8012240F22551054800F03E
:101F30005EF80121034800F041F807B000BD000041
:101F4000000002400010014010B520210D4800F0B3
:101F500041F8012810D10B4800F0D8F80A49088050
:101F600008460188074800F0D6F800BF80210548E0
:101F700000F030F80128F9D12021024800F00FF8D4
:101F800010BD0000001001401000002001F400729C
:101F9000B2F5007F00D100BFCA430280704710B580
:101FA0000022002340F66A14A14200D100BF0A12A9
:101FB00001249440A3B2DC43048010BD21B1828986
:101FC00042F40052828104E082894DF6FF731A4088
:101FD0008281704702460020B1F5007F00D100BF2A
:101FE00013880B400BB1012000E000207047F0B5D2
:101FF0000346002400260025002040F66A17B94257
:1020000000D100BF1846C1F3421401F01F0601279A
:1020100007FA06F5012C01D10C3004E0022C01D1A5
:10202000103000E014301AB107682F43076002E057
:102030000768AF430760F0BD2DE9FF4705460E4630
:102040000024A14600BFA046B08900B100BF2C8A81
:1020500024F44054F08804432C82AC8941F20C6093
:102060008443B08831890843718908430443AC81B3
:10207000AC8A24F44074B0890443AC826846FEF70D
:10208000CFFD2048854202D01F48854202D1DDF8AD
:102090000C9001E0DDF80890A88900F4004040B100
:1020A00009EBC90000EB091031684900B0FBF1F7FA
:1020B00007E009EBC90000EB091031688900B0FBAB
:1020C000F1F76420B7FBF0F004012009642101FB63
:1020D0001078A88900F4004040B1322000EBC8001D
:1020E000B0FBF1F000F00700044308E0322000EB01
:1020F00008106421B0FBF1F000F00F0004432C81C4
:10210000BDE8FF87001001400014014001468888A7
:10211000C0F308007047C1F308028280704700BF17
:10212000FEE700000FB4054B10B503A9044A02985E
:1021300000F0DAF810BC5DF814FB0000192A000862
:102140001800002002E008C8121F08C1002AFAD1B6
:1021500070477047002001E001C1121F002AFBD127
:10216000704700002DE9FF5F82B00021DDE90430F7
:10217000020DDDF840B0034318D044F61050A2F22F
:10218000FF3242431514119801281FD0A5EB0B0014
:10219000401C5FEA000A4FF000064E4FDFF838910E
:1021A000B046504615D5CAF1000413E01198012439
:1021B0004AA3012801D16FEA0B010298119AC0E9E4
:1021C0000031C0E9024206B0BDE8F09FCBF100004B
:1021D000DFE704460021404A491842EB0450CDE9AC
:1021E000001012E0E00707D032463B464046494621
:1021F000FEF7D4F88046894632463B4610461946DB
:10220000FEF7CCF806460F466410002CEAD1DDE953
:102210000401DDE90023BAF1000F06DAFEF7BEF88B
:1022200042464B46FEF7BAF805E0FEF729F942466A
:102230004B46FEF725F904460E460022284BFEF7D2
:10224000A7F903D84FF0FF30014607E00022254BE5
:1022500020463146FDF7FBFFFEF781F9102409E027
:10226000002C0ADB0A220023FDF7C0FF039B30325B
:102270001A55641E50EA0102F2D1641C039AC4F19B
:1022800011031444119A012A03D0012208430DD1ED
:102290000AE0084304D000204FF0110B119072E7C0
:1022A000A3EB0B056D1E0DE05B4504DD4FF0000256
:1022B00005F1010504E003DA4FF00002A5F1010584
:1022C000002AECD002981199C0E90231C0E900451A
:1022D00079E70000000014400000F03F30000000EB
:1022E0000000F0430000E03F2DE9FF4F95B09B4612
:1022F0008946064600250FE2252877D10024274687
:10230000F84A0121059400E0044316F8013F203B00
:1023100001FA03F01042F7D130782A2811D06FF07B
:102320002F033078A0F13002092A16D8059A44F01C
:10233000020402EB820203EB42021044761C059079
:10234000EFE759F8042B0592002A03DA504244F4CF
:102350000054059044F00204761C30782E2816D1E3
:1023600016F8010F44F004042A280DD06FF02F0254
:102370003078A0F13003092B09D807EB870302EB73
:102380004303C718761CF3E759F8047B761C3078B2
:102390006C280FD006DC4C2817D068280DD06A288E
:1023A00014D104E0742810D07A280FD10DE044F441
:1023B00000140AE044F4801401E044F440147278FC
:1023C000824202D104F58014761C761C307866288F
:1023D0000BD013DC582877D009DC002875D04528AD
:1023E000F6D04628F4D047281AD19DE118E063289A
:1023F00035D0642879D0652812D195E1702873D042
:1024000008DC6728F1D069286FD06E280DD06F28BE
:1024100006D1B5E073282CD0752875D0782874D0F3
:102420005A46179990476D1C75E1C4F30250022873
:1024300009D003280DD0D9F8001004280DD00D6064
:1024400009F1040967E1D9F80010EA17C1E900525F
:10245000F6E7D9F800100D80F2E70D70F0E719F8F3
:10246000041B8DF8001000208DF80100EA460120C1
:1024700003E059F804AB4FF0FF3061074FF0000163
:1024800002D40DE008F101018846B9420FDA804517
:10249000F8DB1AF808100029F4D108E008F101016E
:1024A00088468142FADB1AF808100029F6D105980F
:1024B0005B46A0EB080721463846179A00F094FACD
:1024C000284400EB080507E04DE029E10DE01AF88B
:1024D000010B5A4617999047B8F10108F7D25B46AD
:1024E00021463846179A13E142E00A220092C4F3CB
:1024F00002524FF0000A022A08D059F804CB032AEE
:102500004FEAEC710AD00DE029E02AE009F1070159
:1025100021F00702F2E802C1914609E00FFA8CFCB3
:102520004FEAEC71042A03D14FFA8CFC4FEAEC71AC
:10253000002907DA0A460021DCF1000C61EB0201F8
:102540002D2202E0220504D52B228DF80420012241
:1025500003E0E20701D02022F7E7904659E00A2184
:1025600002E010220DE010214FF0000A00910BE074
:1025700010224FF0000A44F004040827009203E000
:1025800008224FF0000A0092C4F30252022A05D03A
:1025900059F804CB0021032A08D009E009F107010A
:1025A00021F00702F2E802C1914605E01FFA8CFC17
:1025B000042A01D10CF0FF0C4FF00008220728D5A7
:1025C000702806D0009B83F0100353EA0A0305D05D
:1025D0000EE040228DF80420012208E05CEA0102AE
:1025E00006D030228DF804208DF805000222904696
:1025F000009B83F0080353EA0A030AD15CEA010254
:1026000001D1620705D530228DF804204FF0010872
:102610007F1E582804D034A003900EA802900DE02D
:1026200036A0F9E753466046009AFDF7DFFD844681
:102630000398825C0298401E029002705CEA0100DE
:10264000F0D1029806A9081A00F1200A600702D505
:1026500024F4803400E00127574502DDA7EB0A008F
:1026600000E0002000EB0A01009005984144401A68
:102670000590E00306D45B462146179A059800F0C2
:10268000B3F90544002706E001A85A46C05D179932
:1026900090476D1C7F1C4745F6DBE0030CD55B467D
:1026A0002146179A059800F09FF9054404E0302070
:1026B0005A46179990476D1C0099481E00900029B2
:1026C000F5DC08E0029802995A460078491C02910C
:1026D000179990476D1CBAF10001AAF1010AF1DCCB
:1026E00065E10000092801003031323334353637D6
:1026F000383961626364656600000000303132334E
:1027000034353637383941424344454600000000ED
:1027100000F058F90544761C307800287FF4ECADC1
:1027200019B02846BDE8F08F620700D4062709F1EA
:10273000070222F0070CFCE80223E14603F0004800
:102740005FEA080C02D00FF2702C0DE05FEA045C27
:1027500002D50FF2682C07E05FEAC47C02D00FF2CA
:10276000602C01E0AFF2700C4FF0FF3823F0004313
:10277000CDF850C065280CD006DC452809D0462885
:102780001DD047283DD13DE0662818D067287ED16E
:1027900038E00021112F01DB112000E0781CCDE989
:1027A000000106A90EA8FFF7DDFCDDE90F010E9A76
:1027B00003910021009207F1010A04914DE04FF0CE
:1027C00000400097CDE9011006A90EA8FFF7CAFC4A
:1027D000DDE90F0203920E9B11990022DDF80CA097
:1027E0000093049211B9791C00EB010AB7EB0A00BF
:1027F00004D4C0F1FF3007F1010A0490AAEB0700EE
:10280000019044E0012F00DA01270021112F01DDA2
:10281000112000E03846CDE9000106A90EA8FFF717
:10282000A1FCDDE90F010E9A0391002104910092B1
:10283000BA4621070CD40399514500DA8A46BAF109
:10284000010F05DD009AAAF10101515C302908D081
:10285000B84202DA10F1040F06DA0121CDE90110C5
:1028600015E0AAF10101E9E7002805DC049901441B
:102870000491AAEB000102E0411C514500DD8A46AB
:102880000499401A401C01904FF00040029020072C
:1028900004D40198504501DBCDF8048000208DF868
:1028A0004F0002980DF14F07B0F1004F25D02B20BB
:1028B0000E9002984FF0020800280CDA4042029075
:1028C0002D200E9007E00A210298FDF779FC3031A7
:1028D000029007F8011DB8F10001A8F10108F2DC2F
:1028E00002980028EFD1791E0E980870307800F019
:1028F000200040F0450007F8020D12A8C01B00F1AF
:1029000007081498007800B1012000EB0A01019833
:1029100001EBE07105984144401A401E0590E00328
:1029200006D45B462146179A059800F05DF80544E9
:102930001498007818B15A46179990476D1CE00317
:1029400024D55B462146179A059800F04DF80544BA
:102950001CE00498002807DBDDE90301884203DD61
:102960000098405C179901E0179930205A4690472B
:10297000049805F10105401C04900198401E019047
:1029800004D12E205A46179990476D1CBAF10001C8
:10299000AAF1010ADDDC05E017F8010B5A46179988
:1029A00090476D1CB8F10001A8F10108F4DC5B460A
:1029B0002146179A0598ABE62D0000002B00000079
:1029C000200000002DE9F041044600251E46174670
:1029D000880404D405E039462020B0476D1C641EED
:1029E000F9D52846BDE8F0812DE9F04104460025DF
:1029F0001E469046C80301D5302700E020278804F2
:102A000004D505E041463846B0476D1C641EF9D533
:102A10002846BDE8F081000070B504460D46E1B2DD
:102A20000548FFF778FB00BF80210348FFF7D2FA83
:102A30000028F9D0204670BD0010014092B0FDF78B
:102A40000FFFFDF7E1FFFEF709FAFEF797F8FEF733
:102A5000ABF9FFF717FA84E000F09EF800F082F877
:102A60000220FEF773F9C0B28DF804000120FEF7D2
:102A70006DF9C0B28DF805009DF80400012830D131
:102A8000FDF7C8FFFEF7FEF9FEF77EF8FEF738F80F
:102A9000FDF756FEFDF71AFF00B2ADF84400FDF752
:102AA0005DFF00B2ADF83C00FEF7B0F900B2ADF842
:102AB0003400FEF7ABF900B2ADF82C00FEF758F881
:102AC00000B2ADF82400FEF753F800B2ADF81C00D8
:102AD0000020ADF81400FDF715FE00B2ADF80C00B3
:102AE00020E09DF8050010B19DF80400D0B9002049
:102AF000ADF84400ADF83C00ADF83400ADF82C0062
:102B0000ADF82400ADF81C00ADF81400ADF80C00D1
:102B1000FDF78EFFFEF7A8F9FEF744F8FDF7FAFF80
:102B2000FDF718FEBDF93C00FDF74EFFBDF934007E
:102B3000FEF740F9BDF92C1040F6B832501AFEF7F6
:102B40004BF9BDF92400FDF7EFFFBDF91C00FDF7BF
:102B5000F5FFBDF91400FDF7C9FFBDF90C00FDF745
:102B6000E5FD79E770B5FDF7F9FE0446FDF7AEFE29
:102B700005460220FEF7EAF8064623462A46314675
:102B800001A0FFF7CFFA70BD25642C2025752C20FD
:102B900025750D0A0000000070470000BC2B0008DE
:102BA000000000201C00000044210008D82B000871
:102BB0001C00002004040000542100080000000054
:102BC00001020304010203040607080900000000D3
:082BD0000000000000000000FD
:040000050800019D51
:00000001FF
